{
  "contractName": "CommentFactory",
  "abi": [
    {
      "anonymous": false,
      "inputs": [
        {
          "indexed": false,
          "internalType": "uint256",
          "name": "id",
          "type": "uint256"
        },
        {
          "indexed": false,
          "internalType": "string",
          "name": "_ipfsHash",
          "type": "string"
        },
        {
          "indexed": false,
          "internalType": "address",
          "name": "_poster",
          "type": "address"
        },
        {
          "indexed": false,
          "internalType": "string",
          "name": "_post",
          "type": "string"
        },
        {
          "indexed": false,
          "internalType": "uint256",
          "name": "_createdOn",
          "type": "uint256"
        }
      ],
      "name": "NewComment",
      "type": "event"
    },
    {
      "inputs": [
        {
          "internalType": "string",
          "name": "_ipfsHash",
          "type": "string"
        },
        {
          "internalType": "string",
          "name": "_post",
          "type": "string"
        }
      ],
      "name": "createComment",
      "outputs": [],
      "stateMutability": "nonpayable",
      "type": "function"
    },
    {
      "inputs": [
        {
          "internalType": "string",
          "name": "_ipfsHash",
          "type": "string"
        }
      ],
      "name": "getLatestComments",
      "outputs": [
        {
          "components": [
            {
              "internalType": "uint256",
              "name": "id",
              "type": "uint256"
            },
            {
              "internalType": "address",
              "name": "poster",
              "type": "address"
            },
            {
              "internalType": "string",
              "name": "post",
              "type": "string"
            },
            {
              "internalType": "uint256",
              "name": "createdOn",
              "type": "uint256"
            }
          ],
          "internalType": "struct CommentFactory.Comment[]",
          "name": "",
          "type": "tuple[]"
        }
      ],
      "stateMutability": "view",
      "type": "function",
      "constant": true
    }
  ],
  "bytecode": "0x60806040526000805534801561001457600080fd5b50610c3c806100246000396000f3fe608060405234801561001057600080fd5b50600436106100365760003560e01c8063a1edee491461003b578063c4cb5c5714610057575b600080fd5b610055600480360381019061005091906105cd565b610087565b005b610071600480360381019061006c9190610584565b6101e3565b60405161007e9190610827565b60405180910390f35b600042905060018360405161009c9190610810565b9081526020016040518091039020604051806080016040528060005481526020013373ffffffffffffffffffffffffffffffffffffffff1681526020018481526020018381525090806001815401808255809150506001900390600052602060002090600402016000909190919091506000820151816000015560208201518160010160006101000a81548173ffffffffffffffffffffffffffffffffffffffff021916908373ffffffffffffffffffffffffffffffffffffffff1602179055506040820151816002019080519060200190610179929190610433565b506060820151816003015550507f31909a73b5b60825b710a27f85fd3baa5b0c5cd5971dd4b6506fc46ca52770fb600054843385856040516101bf959493929190610849565b60405180910390a16000808154809291906101d990610adc565b9190505550505050565b606060006001836040516101f79190610810565b9081526020016040518091039020805480602002602001604051908101604052809291908181526020016000905b828210156103535783829060005260206000209060040201604051806080016040529081600082015481526020016001820160009054906101000a900473ffffffffffffffffffffffffffffffffffffffff1673ffffffffffffffffffffffffffffffffffffffff1673ffffffffffffffffffffffffffffffffffffffff1681526020016002820180546102b890610a79565b80601f01602080910402602001604051908101604052809291908181526020018280546102e490610a79565b80156103315780601f1061030657610100808354040283529160200191610331565b820191906000526020600020905b81548152906001019060200180831161031457829003601f168201915b5050505050815260200160038201548152505081526020019060010190610225565b5050505090506000815167ffffffffffffffff81111561037657610375610bb2565b5b6040519080825280602002602001820160405280156103af57816020015b61039c6104b9565b8152602001906001900390816103945790505b50905060005b82518110156104285760008160016103cd9190610971565b84516103d991906109c7565b90508381815181106103ee576103ed610b83565b5b602002602001015183838151811061040957610408610b83565b5b602002602001018190525050808061042090610adc565b9150506103b5565b508092505050919050565b82805461043f90610a79565b90600052602060002090601f01602090048101928261046157600085556104a8565b82601f1061047a57805160ff19168380011785556104a8565b828001600101855582156104a8579182015b828111156104a757825182559160200191906001019061048c565b5b5090506104b591906104f7565b5090565b604051806080016040528060008152602001600073ffffffffffffffffffffffffffffffffffffffff16815260200160608152602001600081525090565b5b808211156105105760008160009055506001016104f8565b5090565b6000610527610522846108cf565b6108aa565b90508281526020810184848401111561054357610542610be6565b5b61054e848285610a37565b509392505050565b600082601f83011261056b5761056a610be1565b5b813561057b848260208601610514565b91505092915050565b60006020828403121561059a57610599610bf0565b5b600082013567ffffffffffffffff8111156105b8576105b7610beb565b5b6105c484828501610556565b91505092915050565b600080604083850312156105e4576105e3610bf0565b5b600083013567ffffffffffffffff81111561060257610601610beb565b5b61060e85828601610556565b925050602083013567ffffffffffffffff81111561062f5761062e610beb565b5b61063b85828601610556565b9150509250929050565b6000610651838361078f565b905092915050565b610662816109fb565b82525050565b610671816109fb565b82525050565b600061068282610910565b61068c8185610933565b93508360208202850161069e85610900565b8060005b858110156106da57848403895281516106bb8582610645565b94506106c683610926565b925060208a019950506001810190506106a2565b50829750879550505050505092915050565b60006106f78261091b565b6107018185610944565b9350610711818560208601610a46565b61071a81610bf5565b840191505092915050565b60006107308261091b565b61073a8185610955565b935061074a818560208601610a46565b61075381610bf5565b840191505092915050565b60006107698261091b565b6107738185610966565b9350610783818560208601610a46565b80840191505092915050565b60006080830160008301516107a760008601826107f2565b5060208301516107ba6020860182610659565b50604083015184820360408601526107d282826106ec565b91505060608301516107e760608601826107f2565b508091505092915050565b6107fb81610a2d565b82525050565b61080a81610a2d565b82525050565b600061081c828461075e565b915081905092915050565b600060208201905081810360008301526108418184610677565b905092915050565b600060a08201905061085e6000830188610801565b81810360208301526108708187610725565b905061087f6040830186610668565b81810360608301526108918185610725565b90506108a06080830184610801565b9695505050505050565b60006108b46108c5565b90506108c08282610aab565b919050565b6000604051905090565b600067ffffffffffffffff8211156108ea576108e9610bb2565b5b6108f382610bf5565b9050602081019050919050565b6000819050602082019050919050565b600081519050919050565b600081519050919050565b6000602082019050919050565b600082825260208201905092915050565b600082825260208201905092915050565b600082825260208201905092915050565b600081905092915050565b600061097c82610a2d565b915061098783610a2d565b9250827fffffffffffffffffffffffffffffffffffffffffffffffffffffffffffffffff038211156109bc576109bb610b25565b5b828201905092915050565b60006109d282610a2d565b91506109dd83610a2d565b9250828210156109f0576109ef610b25565b5b828203905092915050565b6000610a0682610a0d565b9050919050565b600073ffffffffffffffffffffffffffffffffffffffff82169050919050565b6000819050919050565b82818337600083830152505050565b60005b83811015610a64578082015181840152602081019050610a49565b83811115610a73576000848401525b50505050565b60006002820490506001821680610a9157607f821691505b60208210811415610aa557610aa4610b54565b5b50919050565b610ab482610bf5565b810181811067ffffffffffffffff82111715610ad357610ad2610bb2565b5b80604052505050565b6000610ae782610a2d565b91507fffffffffffffffffffffffffffffffffffffffffffffffffffffffffffffffff821415610b1a57610b19610b25565b5b600182019050919050565b7f4e487b7100000000000000000000000000000000000000000000000000000000600052601160045260246000fd5b7f4e487b7100000000000000000000000000000000000000000000000000000000600052602260045260246000fd5b7f4e487b7100000000000000000000000000000000000000000000000000000000600052603260045260246000fd5b7f4e487b7100000000000000000000000000000000000000000000000000000000600052604160045260246000fd5b600080fd5b600080fd5b600080fd5b600080fd5b6000601f19601f830116905091905056fea26469706673582212205a2399e210d4c43f4466c1aaaf0f270354f94bfc21c3f0b2255e22fb398c1d2064736f6c63430008070033",
  "immutableReferences": {},
  "source": "//SPDX-License-Identifier: MIT\r\npragma solidity >=0.7.5 <0.9.0;\r\npragma abicoder v2;\r\n\r\ncontract CommentFactory {\r\n\r\n  event NewComment(uint id, string _ipfsHash, address _poster, string _post, uint _createdOn);\r\n\r\n  uint counter = 0;\r\n\r\n  struct Comment {\r\n    uint id;\r\n    address poster;\r\n    string post;\r\n    uint createdOn;\r\n  }\r\n\r\n  mapping (string => Comment[]) comments;\r\n\r\n  function createComment(string memory _ipfsHash, string memory _post) external {\r\n    uint timestamp = block.timestamp;\r\n    comments[_ipfsHash].push(Comment(counter, msg.sender, _post, timestamp));\r\n    emit NewComment(counter, _ipfsHash, msg.sender, _post, timestamp);\r\n    counter++;\r\n  }\r\n\r\n  function getLatestComments(string memory _ipfsHash) external view returns(Comment[] memory) {\r\n    Comment[] memory videoComments = comments[_ipfsHash];\r\n    Comment[] memory latestComments = new Comment[](videoComments.length);\r\n    for(uint i = 0; i < videoComments.length; i++) {\r\n        uint index = videoComments.length - (1 + i);\r\n        latestComments[i] = videoComments[index];\r\n    }\r\n    return latestComments;\r\n  }\r\n}",
  "sourcePath": "C:/Users/Carl/playground/decentralized_video_hosting/service/contracts/CommentFactory.sol",
  "compiler": {
    "name": "solc",
    "version": "0.8.7+commit.e28d00a7.Emscripten.clang"
  },
  "schemaVersion": "3.3.4",
  "updatedAt": "2021-09-27T16:14:15.139Z",
  "networkType": "ethereum",
  "devdoc": {
    "kind": "dev",
    "methods": {},
    "version": 1
  },
  "userdoc": {
    "kind": "user",
    "methods": {},
    "version": 1
  }
}