{
  "contractName": "UserFactory",
  "abi": [
    {
      "anonymous": false,
      "inputs": [
        {
          "indexed": false,
          "internalType": "address",
          "name": "_supporter",
          "type": "address"
        },
        {
          "indexed": false,
          "internalType": "address",
          "name": "_poster",
          "type": "address"
        },
        {
          "indexed": false,
          "internalType": "uint256",
          "name": "_amount",
          "type": "uint256"
        }
      ],
      "name": "NewPayment",
      "type": "event"
    },
    {
      "anonymous": false,
      "inputs": [
        {
          "indexed": false,
          "internalType": "address",
          "name": "_subscriber",
          "type": "address"
        },
        {
          "indexed": false,
          "internalType": "address",
          "name": "_poster",
          "type": "address"
        }
      ],
      "name": "NewSubscription",
      "type": "event"
    },
    {
      "anonymous": false,
      "inputs": [
        {
          "indexed": false,
          "internalType": "string",
          "name": "_name",
          "type": "string"
        }
      ],
      "name": "NewUser",
      "type": "event"
    },
    {
      "anonymous": false,
      "inputs": [
        {
          "indexed": false,
          "internalType": "address",
          "name": "_user",
          "type": "address"
        },
        {
          "indexed": false,
          "internalType": "uint256",
          "name": "_amount",
          "type": "uint256"
        }
      ],
      "name": "NewWithdrawl",
      "type": "event"
    },
    {
      "anonymous": false,
      "inputs": [
        {
          "indexed": false,
          "internalType": "address",
          "name": "_subscriber",
          "type": "address"
        },
        {
          "indexed": false,
          "internalType": "address",
          "name": "_poster",
          "type": "address"
        }
      ],
      "name": "RemovedSubscription",
      "type": "event"
    },
    {
      "inputs": [
        {
          "internalType": "address",
          "name": "",
          "type": "address"
        }
      ],
      "name": "users",
      "outputs": [
        {
          "internalType": "string",
          "name": "name",
          "type": "string"
        },
        {
          "internalType": "uint256",
          "name": "balance",
          "type": "uint256"
        }
      ],
      "stateMutability": "view",
      "type": "function",
      "constant": true
    },
    {
      "inputs": [
        {
          "internalType": "string",
          "name": "_name",
          "type": "string"
        }
      ],
      "name": "createUser",
      "outputs": [],
      "stateMutability": "nonpayable",
      "type": "function"
    },
    {
      "inputs": [
        {
          "internalType": "address",
          "name": "_poster",
          "type": "address"
        }
      ],
      "name": "tip",
      "outputs": [],
      "stateMutability": "payable",
      "type": "function",
      "payable": true
    },
    {
      "inputs": [
        {
          "internalType": "uint256",
          "name": "_amount",
          "type": "uint256"
        }
      ],
      "name": "withdraw",
      "outputs": [],
      "stateMutability": "nonpayable",
      "type": "function"
    },
    {
      "inputs": [
        {
          "internalType": "address",
          "name": "account",
          "type": "address"
        }
      ],
      "name": "getSubscriptions",
      "outputs": [
        {
          "internalType": "address[]",
          "name": "",
          "type": "address[]"
        }
      ],
      "stateMutability": "view",
      "type": "function",
      "constant": true
    },
    {
      "inputs": [
        {
          "internalType": "address",
          "name": "account",
          "type": "address"
        },
        {
          "internalType": "address",
          "name": "_poster",
          "type": "address"
        }
      ],
      "name": "isSubscribed",
      "outputs": [
        {
          "internalType": "bool",
          "name": "",
          "type": "bool"
        }
      ],
      "stateMutability": "view",
      "type": "function",
      "constant": true
    },
    {
      "inputs": [
        {
          "internalType": "address",
          "name": "_poster",
          "type": "address"
        }
      ],
      "name": "subscribe",
      "outputs": [],
      "stateMutability": "nonpayable",
      "type": "function"
    },
    {
      "inputs": [
        {
          "internalType": "address",
          "name": "_poster",
          "type": "address"
        }
      ],
      "name": "unsubscribe",
      "outputs": [],
      "stateMutability": "nonpayable",
      "type": "function"
    }
  ],
  "bytecode": "0x608060405234801561001057600080fd5b50611599806100206000396000f3fe60806040526004361061007b5760003560e01c80637262561c1161004e5780637262561c14610138578063a87430ba14610161578063ac733ef71461019f578063f6416ef6146101bb5761007b565b80632e1a7d4d1461008057806341a7726a146100a9578063507ffba5146100d25780635d6a4413146100fb575b600080fd5b34801561008c57600080fd5b506100a760048036038101906100a29190610f8a565b6101f8565b005b3480156100b557600080fd5b506100d060048036038101906100cb9190610ed4565b610321565b005b3480156100de57600080fd5b506100f960048036038101906100f49190610f41565b6103ff565b005b34801561010757600080fd5b50610122600480360381019061011d9190610ed4565b610523565b60405161012f919061112b565b60405180910390f35b34801561014457600080fd5b5061015f600480360381019061015a9190610ed4565b6105f2565b005b34801561016d57600080fd5b5061018860048036038101906101839190610ed4565b610755565b60405161019692919061118a565b60405180910390f35b6101b960048036038101906101b49190610ed4565b610801565b005b3480156101c757600080fd5b506101e260048036038101906101dd9190610f01565b610897565b6040516101ef919061114d565b60405180910390f35b6000803373ffffffffffffffffffffffffffffffffffffffff1673ffffffffffffffffffffffffffffffffffffffff1681526020019081526020016000206001015481111561024657600080fd5b806000803373ffffffffffffffffffffffffffffffffffffffff1673ffffffffffffffffffffffffffffffffffffffff168152602001908152602001600020600101600082825461029791906112bb565b925050819055503373ffffffffffffffffffffffffffffffffffffffff166108fc829081150290604051600060405180830381858888f193505050501580156102e4573d6000803e3d6000fd5b507fe2f4b7ddb9b31335c86e432561f28023d1048a024302d723db354adde779f5833382604051610316929190611102565b60405180910390a150565b6000803373ffffffffffffffffffffffffffffffffffffffff1673ffffffffffffffffffffffffffffffffffffffff168152602001908152602001600020600201819080600181540180825580915050600190039060005260206000200160009091909190916101000a81548173ffffffffffffffffffffffffffffffffffffffff021916908373ffffffffffffffffffffffffffffffffffffffff1602179055507f3a0b5076ece6f2c8be8457bb8f3245313ca00f236efcc25031b8376662c224cf33826040516103f49291906110a2565b60405180910390a150565b604051806060016040528082815260200160008152602001600067ffffffffffffffff811115610432576104316114e1565b5b6040519080825280602002602001820160405280156104605781602001602082028036833780820191505090505b508152506000803373ffffffffffffffffffffffffffffffffffffffff1673ffffffffffffffffffffffffffffffffffffffff16815260200190815260200160002060008201518160000190805190602001906104be929190610d0d565b506020820151816001015560408201518160020190805190602001906104e5929190610d93565b509050507f66ab3fea2083d9ba15d99b595186fe7fc18e6eba393c0fc056f420e96c3caa44816040516105189190611168565b60405180910390a150565b60606000808373ffffffffffffffffffffffffffffffffffffffff1673ffffffffffffffffffffffffffffffffffffffff1681526020019081526020016000206002018054806020026020016040519081016040528092919081815260200182805480156105e657602002820191906000526020600020905b8160009054906101000a900473ffffffffffffffffffffffffffffffffffffffff1673ffffffffffffffffffffffffffffffffffffffff168152602001906001019080831161059c575b50505050509050919050565b600080600090505b6000803373ffffffffffffffffffffffffffffffffffffffff1673ffffffffffffffffffffffffffffffffffffffff1681526020019081526020016000206002018054905081101561070e578273ffffffffffffffffffffffffffffffffffffffff166000803373ffffffffffffffffffffffffffffffffffffffff1673ffffffffffffffffffffffffffffffffffffffff16815260200190815260200160002060020182815481106106b0576106af6114b2565b5b9060005260206000200160009054906101000a900473ffffffffffffffffffffffffffffffffffffffff1673ffffffffffffffffffffffffffffffffffffffff1614156106fb578091505b8080610706906113dc565b9150506105fa565b5061071881610a9c565b7fb67e792119c75b9a6faed6756109905ea68ea0b137e4f8bad8d113cc7bcf09e433836040516107499291906110a2565b60405180910390a15050565b600060205280600052604060002060009150905080600001805461077890611379565b80601f01602080910402602001604051908101604052809291908181526020018280546107a490611379565b80156107f15780601f106107c6576101008083540402835291602001916107f1565b820191906000526020600020905b8154815290600101906020018083116107d457829003601f168201915b5050505050908060010154905082565b346000808373ffffffffffffffffffffffffffffffffffffffff1673ffffffffffffffffffffffffffffffffffffffff16815260200190815260200160002060010160008282546108529190611265565b925050819055507f629777e97c687ba3e899fb62b1abe65a4fc512287be8092b1f429286afdfc51d33823460405161088c939291906110cb565b60405180910390a150565b6000806000808573ffffffffffffffffffffffffffffffffffffffff1673ffffffffffffffffffffffffffffffffffffffff1681526020019081526020016000206040518060600160405290816000820180546108f390611379565b80601f016020809104026020016040519081016040528092919081815260200182805461091f90611379565b801561096c5780601f106109415761010080835404028352916020019161096c565b820191906000526020600020905b81548152906001019060200180831161094f57829003601f168201915b505050505081526020016001820154815260200160028201805480602002602001604051908101604052809291908181526020018280548015610a0457602002820191906000526020600020905b8160009054906101000a900473ffffffffffffffffffffffffffffffffffffffff1673ffffffffffffffffffffffffffffffffffffffff16815260200190600101908083116109ba575b505050505081525050905060005b816040015151811015610a8f578373ffffffffffffffffffffffffffffffffffffffff1682604001518281518110610a4d57610a4c6114b2565b5b602002602001015173ffffffffffffffffffffffffffffffffffffffff161415610a7c57600192505050610a96565b8080610a87906113dc565b915050610a12565b5060009150505b92915050565b6000803373ffffffffffffffffffffffffffffffffffffffff1673ffffffffffffffffffffffffffffffffffffffff168152602001908152602001600020600201805490508110610aec57610d0a565b60008190505b60016000803373ffffffffffffffffffffffffffffffffffffffff1673ffffffffffffffffffffffffffffffffffffffff16815260200190815260200160002060020180549050610b4391906112bb565b811015610c82576000803373ffffffffffffffffffffffffffffffffffffffff1673ffffffffffffffffffffffffffffffffffffffff168152602001908152602001600020600201600182610b989190611265565b81548110610ba957610ba86114b2565b5b9060005260206000200160009054906101000a900473ffffffffffffffffffffffffffffffffffffffff166000803373ffffffffffffffffffffffffffffffffffffffff1673ffffffffffffffffffffffffffffffffffffffff1681526020019081526020016000206002018281548110610c2757610c266114b2565b5b9060005260206000200160006101000a81548173ffffffffffffffffffffffffffffffffffffffff021916908373ffffffffffffffffffffffffffffffffffffffff1602179055508080610c7a906113dc565b915050610af2565b506000803373ffffffffffffffffffffffffffffffffffffffff1673ffffffffffffffffffffffffffffffffffffffff168152602001908152602001600020600201805480610cd457610cd3611483565b5b6001900381819060005260206000200160006101000a81549073ffffffffffffffffffffffffffffffffffffffff021916905590555b50565b828054610d1990611379565b90600052602060002090601f016020900481019282610d3b5760008555610d82565b82601f10610d5457805160ff1916838001178555610d82565b82800160010185558215610d82579182015b82811115610d81578251825591602001919060010190610d66565b5b509050610d8f9190610e1d565b5090565b828054828255906000526020600020908101928215610e0c579160200282015b82811115610e0b5782518260006101000a81548173ffffffffffffffffffffffffffffffffffffffff021916908373ffffffffffffffffffffffffffffffffffffffff16021790555091602001919060010190610db3565b5b509050610e199190610e1d565b5090565b5b80821115610e36576000816000905550600101610e1e565b5090565b6000610e4d610e48846111df565b6111ba565b905082815260208101848484011115610e6957610e68611515565b5b610e74848285611337565b509392505050565b600081359050610e8b81611535565b92915050565b600082601f830112610ea657610ea5611510565b5b8135610eb6848260208601610e3a565b91505092915050565b600081359050610ece8161154c565b92915050565b600060208284031215610eea57610ee961151f565b5b6000610ef884828501610e7c565b91505092915050565b60008060408385031215610f1857610f1761151f565b5b6000610f2685828601610e7c565b9250506020610f3785828601610e7c565b9150509250929050565b600060208284031215610f5757610f5661151f565b5b600082013567ffffffffffffffff811115610f7557610f7461151a565b5b610f8184828501610e91565b91505092915050565b600060208284031215610fa057610f9f61151f565b5b6000610fae84828501610ebf565b91505092915050565b6000610fc38383610fcf565b60208301905092915050565b610fd8816112ef565b82525050565b610fe7816112ef565b82525050565b6000610ff882611220565b6110028185611243565b935061100d83611210565b8060005b8381101561103e5781516110258882610fb7565b975061103083611236565b925050600181019050611011565b5085935050505092915050565b61105481611301565b82525050565b60006110658261122b565b61106f8185611254565b935061107f818560208601611346565b61108881611524565b840191505092915050565b61109c8161132d565b82525050565b60006040820190506110b76000830185610fde565b6110c46020830184610fde565b9392505050565b60006060820190506110e06000830186610fde565b6110ed6020830185610fde565b6110fa6040830184611093565b949350505050565b60006040820190506111176000830185610fde565b6111246020830184611093565b9392505050565b600060208201905081810360008301526111458184610fed565b905092915050565b6000602082019050611162600083018461104b565b92915050565b60006020820190508181036000830152611182818461105a565b905092915050565b600060408201905081810360008301526111a4818561105a565b90506111b36020830184611093565b9392505050565b60006111c46111d5565b90506111d082826113ab565b919050565b6000604051905090565b600067ffffffffffffffff8211156111fa576111f96114e1565b5b61120382611524565b9050602081019050919050565b6000819050602082019050919050565b600081519050919050565b600081519050919050565b6000602082019050919050565b600082825260208201905092915050565b600082825260208201905092915050565b60006112708261132d565b915061127b8361132d565b9250827fffffffffffffffffffffffffffffffffffffffffffffffffffffffffffffffff038211156112b0576112af611425565b5b828201905092915050565b60006112c68261132d565b91506112d18361132d565b9250828210156112e4576112e3611425565b5b828203905092915050565b60006112fa8261130d565b9050919050565b60008115159050919050565b600073ffffffffffffffffffffffffffffffffffffffff82169050919050565b6000819050919050565b82818337600083830152505050565b60005b83811015611364578082015181840152602081019050611349565b83811115611373576000848401525b50505050565b6000600282049050600182168061139157607f821691505b602082108114156113a5576113a4611454565b5b50919050565b6113b482611524565b810181811067ffffffffffffffff821117156113d3576113d26114e1565b5b80604052505050565b60006113e78261132d565b91507fffffffffffffffffffffffffffffffffffffffffffffffffffffffffffffffff82141561141a57611419611425565b5b600182019050919050565b7f4e487b7100000000000000000000000000000000000000000000000000000000600052601160045260246000fd5b7f4e487b7100000000000000000000000000000000000000000000000000000000600052602260045260246000fd5b7f4e487b7100000000000000000000000000000000000000000000000000000000600052603160045260246000fd5b7f4e487b7100000000000000000000000000000000000000000000000000000000600052603260045260246000fd5b7f4e487b7100000000000000000000000000000000000000000000000000000000600052604160045260246000fd5b600080fd5b600080fd5b600080fd5b600080fd5b6000601f19601f8301169050919050565b61153e816112ef565b811461154957600080fd5b50565b6115558161132d565b811461156057600080fd5b5056fea264697066735822122079b7b6c6e93f0bc455e429ebac37b20e940c9c7ff75f0ce3c54e633137d1100b64736f6c63430008070033",
  "immutableReferences": {},
  "source": "//SPDX-License-Identifier: MIT\r\npragma solidity >=0.7.5 <0.9.0;\r\npragma abicoder v2;\r\n\r\ncontract UserFactory {\r\n\r\n  event NewUser(string _name);\r\n  event NewPayment(address _supporter, address _poster, uint _amount);\r\n  event NewWithdrawl(address _user, uint _amount);\r\n  event NewSubscription(address _subscriber, address _poster);\r\n  event RemovedSubscription(address _subscriber, address _poster);\r\n\r\n  struct User {\r\n    string name;\r\n    uint balance;\r\n    address[] subscriptions;\r\n  }\r\n\r\n  mapping (address => User) public users;\r\n\r\n  function createUser(string memory _name) external {\r\n    users[msg.sender] = User(_name, 0, new address[](0));\r\n    emit NewUser(_name);\r\n  }\r\n\r\n  function tip(address _poster) external payable {\r\n    users[_poster].balance += msg.value;\r\n    emit NewPayment(msg.sender, _poster, msg.value);\r\n  }\r\n\r\n   function withdraw(uint _amount) external {\r\n    require (_amount <= users[msg.sender].balance);\r\n    users[msg.sender].balance -= _amount;\r\n    payable(msg.sender).transfer(_amount);\r\n    emit NewWithdrawl(msg.sender, _amount);\r\n  }\r\n  \r\n  function getSubscriptions(address account) external view returns (address[] memory) {\r\n    return users[account].subscriptions;\r\n  }\r\n\r\n  function isSubscribed(address account, address _poster) public view returns (bool) {\r\n    User memory user = users[account];\r\n    for (uint i = 0; i < user.subscriptions.length; i++) {\r\n      if (user.subscriptions[i] == _poster) {\r\n        return true;\r\n      }\r\n    }\r\n    return false;\r\n  }\r\n\r\n  function subscribe(address _poster) external {\r\n    users[msg.sender].subscriptions.push(_poster);\r\n    emit NewSubscription(msg.sender, _poster);\r\n  }\r\n\r\n  function removeSubscription(uint index) internal {\r\n    if (index >= users[msg.sender].subscriptions.length) return;\r\n    for (uint i = index; i < users[msg.sender].subscriptions.length - 1; i++){\r\n        users[msg.sender].subscriptions[i] = users[msg.sender].subscriptions[i+1];\r\n    }\r\n    users[msg.sender].subscriptions.pop();\r\n  }\r\n\r\n  function unsubscribe(address _poster) public  {\r\n        uint index;\r\n        for (uint i = 0; i < users[msg.sender].subscriptions.length; i++) {\r\n            if (users[msg.sender].subscriptions[i] == _poster) {\r\n                index = i;\r\n            }\r\n        }\r\n        removeSubscription(index);\r\n        emit RemovedSubscription(msg.sender, _poster);\r\n  }\r\n}\r\n",
  "sourcePath": "C:/Users/Carl/playground/decentralized_video_hosting/service/contracts/UserFactory.sol",
  "compiler": {
    "name": "solc",
    "version": "0.8.7+commit.e28d00a7.Emscripten.clang"
  },
  "schemaVersion": "3.3.4",
  "updatedAt": "2021-09-27T16:14:14.259Z",
  "networkType": "ethereum",
  "devdoc": {
    "kind": "dev",
    "methods": {},
    "version": 1
  },
  "userdoc": {
    "kind": "user",
    "methods": {},
    "version": 1
  }
}