{
  "contractName": "VideoFactory",
  "abi": [
    {
      "inputs": [
        {
          "internalType": "address",
          "name": "_deployedContract",
          "type": "address"
        }
      ],
      "stateMutability": "nonpayable",
      "type": "constructor"
    },
    {
      "anonymous": false,
      "inputs": [
        {
          "indexed": false,
          "internalType": "string",
          "name": "_ipfsHash",
          "type": "string"
        },
        {
          "indexed": false,
          "internalType": "string",
          "name": "_title",
          "type": "string"
        },
        {
          "indexed": false,
          "internalType": "uint256",
          "name": "_createdOn",
          "type": "uint256"
        },
        {
          "indexed": false,
          "internalType": "address",
          "name": "_poster",
          "type": "address"
        }
      ],
      "name": "NewVideo",
      "type": "event"
    },
    {
      "inputs": [
        {
          "internalType": "string",
          "name": "",
          "type": "string"
        }
      ],
      "name": "videos",
      "outputs": [
        {
          "internalType": "string",
          "name": "ipfsHash",
          "type": "string"
        },
        {
          "internalType": "string",
          "name": "title",
          "type": "string"
        },
        {
          "internalType": "uint256",
          "name": "createdOn",
          "type": "uint256"
        },
        {
          "internalType": "address",
          "name": "poster",
          "type": "address"
        }
      ],
      "stateMutability": "view",
      "type": "function",
      "constant": true
    },
    {
      "inputs": [
        {
          "internalType": "string",
          "name": "_ipfsHash",
          "type": "string"
        },
        {
          "internalType": "string",
          "name": "_title",
          "type": "string"
        }
      ],
      "name": "postVideo",
      "outputs": [],
      "stateMutability": "nonpayable",
      "type": "function"
    },
    {
      "inputs": [],
      "name": "getLatestVideos",
      "outputs": [
        {
          "components": [
            {
              "internalType": "string",
              "name": "ipfsHash",
              "type": "string"
            },
            {
              "internalType": "string",
              "name": "title",
              "type": "string"
            },
            {
              "internalType": "uint256",
              "name": "createdOn",
              "type": "uint256"
            },
            {
              "internalType": "address",
              "name": "poster",
              "type": "address"
            }
          ],
          "internalType": "struct VideoFactory.Video[]",
          "name": "",
          "type": "tuple[]"
        }
      ],
      "stateMutability": "view",
      "type": "function",
      "constant": true
    },
    {
      "inputs": [
        {
          "internalType": "address",
          "name": "_poster",
          "type": "address"
        }
      ],
      "name": "getVideosByPoster",
      "outputs": [
        {
          "components": [
            {
              "internalType": "string",
              "name": "ipfsHash",
              "type": "string"
            },
            {
              "internalType": "string",
              "name": "title",
              "type": "string"
            },
            {
              "internalType": "uint256",
              "name": "createdOn",
              "type": "uint256"
            },
            {
              "internalType": "address",
              "name": "poster",
              "type": "address"
            }
          ],
          "internalType": "struct VideoFactory.Video[]",
          "name": "",
          "type": "tuple[]"
        }
      ],
      "stateMutability": "view",
      "type": "function",
      "constant": true
    },
    {
      "inputs": [
        {
          "internalType": "address[]",
          "name": "_subscriptions",
          "type": "address[]"
        }
      ],
      "name": "getSubscribedVideos",
      "outputs": [
        {
          "components": [
            {
              "internalType": "string",
              "name": "ipfsHash",
              "type": "string"
            },
            {
              "internalType": "string",
              "name": "title",
              "type": "string"
            },
            {
              "internalType": "uint256",
              "name": "createdOn",
              "type": "uint256"
            },
            {
              "internalType": "address",
              "name": "poster",
              "type": "address"
            }
          ],
          "internalType": "struct VideoFactory.Video[]",
          "name": "",
          "type": "tuple[]"
        }
      ],
      "stateMutability": "view",
      "type": "function",
      "constant": true
    }
  ],
  "bytecode": "0x60806040523480156200001157600080fd5b506040516200183538038062001835833981810160405281019062000037919062000095565b806000806101000a81548173ffffffffffffffffffffffffffffffffffffffff021916908373ffffffffffffffffffffffffffffffffffffffff160217905550506200011a565b6000815190506200008f8162000100565b92915050565b600060208284031215620000ae57620000ad620000fb565b5b6000620000be848285016200007e565b91505092915050565b6000620000d482620000db565b9050919050565b600073ffffffffffffffffffffffffffffffffffffffff82169050919050565b600080fd5b6200010b81620000c7565b81146200011757600080fd5b50565b61170b806200012a6000396000f3fe608060405234801561001057600080fd5b50600436106100575760003560e01c80631cf6eccc1461005c5780635d7592551461008c5780636ef4de9e146100a85780637f19372f146100db578063a292febc1461010b575b600080fd5b61007660048036038101906100719190610ef1565b610129565b60405161008391906112a7565b60405180910390f35b6100a660048036038101906100a19190610fb0565b610506565b005b6100c260048036038101906100bd9190610f67565b61073a565b6040516100d294939291906112c9565b60405180910390f35b6100f560048036038101906100f09190610f1e565b6108b0565b60405161010291906112a7565b60405180910390f35b610113610a59565b60405161012091906112a7565b60405180910390f35b60606000600460008473ffffffffffffffffffffffffffffffffffffffff1673ffffffffffffffffffffffffffffffffffffffff1681526020019081526020016000205490506000600360008573ffffffffffffffffffffffffffffffffffffffff1673ffffffffffffffffffffffffffffffffffffffff168152602001908152602001600020805480602002602001604051908101604052809291908181526020016000905b8282101561027c5783829060005260206000200180546101ef9061152c565b80601f016020809104026020016040519081016040528092919081815260200182805461021b9061152c565b80156102685780601f1061023d57610100808354040283529160200191610268565b820191906000526020600020905b81548152906001019060200180831161024b57829003601f168201915b5050505050815260200190600101906101d0565b50505050905060008267ffffffffffffffff81111561029e5761029d611665565b5b6040519080825280602002602001820160405280156102d757816020015b6102c4610ced565b8152602001906001900390816102bc5790505b50905060005b838110156104fa5760008160016102f49190611424565b856102ff919061147a565b9050600284828151811061031657610315611636565b5b602002602001015160405161032b9190611279565b90815260200160405180910390206040518060800160405290816000820180546103549061152c565b80601f01602080910402602001604051908101604052809291908181526020018280546103809061152c565b80156103cd5780601f106103a2576101008083540402835291602001916103cd565b820191906000526020600020905b8154815290600101906020018083116103b057829003601f168201915b505050505081526020016001820180546103e69061152c565b80601f01602080910402602001604051908101604052809291908181526020018280546104129061152c565b801561045f5780601f106104345761010080835404028352916020019161045f565b820191906000526020600020905b81548152906001019060200180831161044257829003601f168201915b50505050508152602001600282015481526020016003820160009054906101000a900473ffffffffffffffffffffffffffffffffffffffff1673ffffffffffffffffffffffffffffffffffffffff1673ffffffffffffffffffffffffffffffffffffffff16815250508383815181106104db576104da611636565b5b60200260200101819052505080806104f29061158f565b9150506102dd565b50809350505050919050565b600042905060405180608001604052808481526020018381526020018281526020013373ffffffffffffffffffffffffffffffffffffffff168152506002846040516105529190611279565b9081526020016040518091039020600082015181600001908051906020019061057c929190610d2b565b506020820151816001019080519060200190610599929190610d2b565b506040820151816002015560608201518160030160006101000a81548173ffffffffffffffffffffffffffffffffffffffff021916908373ffffffffffffffffffffffffffffffffffffffff160217905550905050600183908060018154018082558091505060019003906000526020600020016000909190919091509080519060200190610629929190610d2b565b50600360003373ffffffffffffffffffffffffffffffffffffffff1673ffffffffffffffffffffffffffffffffffffffff168152602001908152602001600020839080600181540180825580915050600190039060005260206000200160009091909190915090805190602001906106a2929190610d2b565b50600460003373ffffffffffffffffffffffffffffffffffffffff1673ffffffffffffffffffffffffffffffffffffffff16815260200190815260200160002060008154809291906106f39061158f565b91905055507fbabc29e37995b07b4c641b71e9a477a92c9d006b390e0d96529ea675ff12c7ec8383833360405161072d94939291906112c9565b60405180910390a1505050565b6002818051602081018201805184825260208301602085012081835280955050505050506000915090508060000180546107739061152c565b80601f016020809104026020016040519081016040528092919081815260200182805461079f9061152c565b80156107ec5780601f106107c1576101008083540402835291602001916107ec565b820191906000526020600020905b8154815290600101906020018083116107cf57829003601f168201915b5050505050908060010180546108019061152c565b80601f016020809104026020016040519081016040528092919081815260200182805461082d9061152c565b801561087a5780601f1061084f5761010080835404028352916020019161087a565b820191906000526020600020905b81548152906001019060200180831161085d57829003601f168201915b5050505050908060020154908060030160009054906101000a900473ffffffffffffffffffffffffffffffffffffffff16905084565b60606000805b835181101561093f5760008482815181106108d4576108d3611636565b5b60200260200101519050600460008273ffffffffffffffffffffffffffffffffffffffff1673ffffffffffffffffffffffffffffffffffffffff16815260200190815260200160002054836109299190611424565b92505080806109379061158f565b9150506108b6565b5060008167ffffffffffffffff81111561095c5761095b611665565b5b60405190808252806020026020018201604052801561099557816020015b610982610ced565b81526020019060019003908161097a5790505b5090506000805b8551811015610a4d5760008682815181106109ba576109b9611636565b5b6020026020010151905060006109cf82610129565b905060005b8151811015610a37578181815181106109f0576109ef611636565b5b6020026020010151868681518110610a0b57610a0a611636565b5b60200260200101819052508480610a219061158f565b9550508080610a2f9061158f565b9150506109d4565b5050508080610a459061158f565b91505061099c565b50819350505050919050565b6060600060018054905067ffffffffffffffff811115610a7c57610a7b611665565b5b604051908082528060200260200182016040528015610ab557816020015b610aa2610ced565b815260200190600190039081610a9a5790505b50905060005b600180549050811015610ce5576000816001610ad79190611424565b600180549050610ae7919061147a565b9050600260018281548110610aff57610afe611636565b5b90600052602060002001604051610b169190611290565b9081526020016040518091039020604051806080016040529081600082018054610b3f9061152c565b80601f0160208091040260200160405190810160405280929190818152602001828054610b6b9061152c565b8015610bb85780601f10610b8d57610100808354040283529160200191610bb8565b820191906000526020600020905b815481529060010190602001808311610b9b57829003601f168201915b50505050508152602001600182018054610bd19061152c565b80601f0160208091040260200160405190810160405280929190818152602001828054610bfd9061152c565b8015610c4a5780601f10610c1f57610100808354040283529160200191610c4a565b820191906000526020600020905b815481529060010190602001808311610c2d57829003601f168201915b50505050508152602001600282015481526020016003820160009054906101000a900473ffffffffffffffffffffffffffffffffffffffff1673ffffffffffffffffffffffffffffffffffffffff1673ffffffffffffffffffffffffffffffffffffffff1681525050838381518110610cc657610cc5611636565b5b6020026020010181905250508080610cdd9061158f565b915050610abb565b508091505090565b6040518060800160405280606081526020016060815260200160008152602001600073ffffffffffffffffffffffffffffffffffffffff1681525090565b828054610d379061152c565b90600052602060002090601f016020900481019282610d595760008555610da0565b82601f10610d7257805160ff1916838001178555610da0565b82800160010185558215610da0579182015b82811115610d9f578251825591602001919060010190610d84565b5b509050610dad9190610db1565b5090565b5b80821115610dca576000816000905550600101610db2565b5090565b6000610de1610ddc84611341565b61131c565b90508083825260208201905082856020860282011115610e0457610e03611699565b5b60005b85811015610e345781610e1a8882610e80565b845260208401935060208301925050600181019050610e07565b5050509392505050565b6000610e51610e4c8461136d565b61131c565b905082815260208101848484011115610e6d57610e6c61169e565b5b610e788482856114ea565b509392505050565b600081359050610e8f816116be565b92915050565b600082601f830112610eaa57610ea9611694565b5b8135610eba848260208601610dce565b91505092915050565b600082601f830112610ed857610ed7611694565b5b8135610ee8848260208601610e3e565b91505092915050565b600060208284031215610f0757610f066116a8565b5b6000610f1584828501610e80565b91505092915050565b600060208284031215610f3457610f336116a8565b5b600082013567ffffffffffffffff811115610f5257610f516116a3565b5b610f5e84828501610e95565b91505092915050565b600060208284031215610f7d57610f7c6116a8565b5b600082013567ffffffffffffffff811115610f9b57610f9a6116a3565b5b610fa784828501610ec3565b91505092915050565b60008060408385031215610fc757610fc66116a8565b5b600083013567ffffffffffffffff811115610fe557610fe46116a3565b5b610ff185828601610ec3565b925050602083013567ffffffffffffffff811115611012576110116116a3565b5b61101e85828601610ec3565b9150509250929050565b600061103483836111f1565b905092915050565b611045816114ae565b82525050565b611054816114ae565b82525050565b6000611065826113c3565b61106f81856113e6565b9350836020820285016110818561139e565b8060005b858110156110bd578484038952815161109e8582611028565b94506110a9836113d9565b925060208a01995050600181019050611085565b50829750879550505050505092915050565b60006110da826113ce565b6110e481856113f7565b93506110f48185602086016114f9565b6110fd816116ad565b840191505092915050565b6000611113826113ce565b61111d8185611408565b935061112d8185602086016114f9565b611136816116ad565b840191505092915050565b600061114c826113ce565b6111568185611419565b93506111668185602086016114f9565b80840191505092915050565b6000815461117f8161152c565b6111898186611419565b945060018216600081146111a457600181146111b5576111e8565b60ff198316865281860193506111e8565b6111be856113ae565b60005b838110156111e0578154818901526001820191506020810190506111c1565b838801955050505b50505092915050565b6000608083016000830151848203600086015261120e82826110cf565b9150506020830151848203602086015261122882826110cf565b915050604083015161123d604086018261125b565b506060830151611250606086018261103c565b508091505092915050565b611264816114e0565b82525050565b611273816114e0565b82525050565b60006112858284611141565b915081905092915050565b600061129c8284611172565b915081905092915050565b600060208201905081810360008301526112c1818461105a565b905092915050565b600060808201905081810360008301526112e38187611108565b905081810360208301526112f78186611108565b9050611306604083018561126a565b611313606083018461104b565b95945050505050565b6000611326611337565b9050611332828261155e565b919050565b6000604051905090565b600067ffffffffffffffff82111561135c5761135b611665565b5b602082029050602081019050919050565b600067ffffffffffffffff82111561138857611387611665565b5b611391826116ad565b9050602081019050919050565b6000819050602082019050919050565b60008190508160005260206000209050919050565b600081519050919050565b600081519050919050565b6000602082019050919050565b600082825260208201905092915050565b600082825260208201905092915050565b600082825260208201905092915050565b600081905092915050565b600061142f826114e0565b915061143a836114e0565b9250827fffffffffffffffffffffffffffffffffffffffffffffffffffffffffffffffff0382111561146f5761146e6115d8565b5b828201905092915050565b6000611485826114e0565b9150611490836114e0565b9250828210156114a3576114a26115d8565b5b828203905092915050565b60006114b9826114c0565b9050919050565b600073ffffffffffffffffffffffffffffffffffffffff82169050919050565b6000819050919050565b82818337600083830152505050565b60005b838110156115175780820151818401526020810190506114fc565b83811115611526576000848401525b50505050565b6000600282049050600182168061154457607f821691505b6020821081141561155857611557611607565b5b50919050565b611567826116ad565b810181811067ffffffffffffffff8211171561158657611585611665565b5b80604052505050565b600061159a826114e0565b91507fffffffffffffffffffffffffffffffffffffffffffffffffffffffffffffffff8214156115cd576115cc6115d8565b5b600182019050919050565b7f4e487b7100000000000000000000000000000000000000000000000000000000600052601160045260246000fd5b7f4e487b7100000000000000000000000000000000000000000000000000000000600052602260045260246000fd5b7f4e487b7100000000000000000000000000000000000000000000000000000000600052603260045260246000fd5b7f4e487b7100000000000000000000000000000000000000000000000000000000600052604160045260246000fd5b600080fd5b600080fd5b600080fd5b600080fd5b600080fd5b6000601f19601f8301169050919050565b6116c7816114ae565b81146116d257600080fd5b5056fea2646970667358221220cf712e18a00b94e9840066e55050740fe88166588718daddea4c33196a418f6264736f6c63430008070033",
  "immutableReferences": {},
  "source": "//SPDX-License-Identifier: MIT\r\npragma solidity >=0.7.5 <0.9.0;\r\npragma abicoder v2;\r\n\r\nimport \"./UserFactory.sol\";\r\n\r\ncontract VideoFactory {\r\n\r\n  event NewVideo(string _ipfsHash, string _title, uint _createdOn, address _poster);\r\n\r\n  UserFactory userFactory;\r\n\r\n  struct Video {\r\n        string ipfsHash;\r\n        string title;\r\n        uint createdOn;\r\n        address poster;\r\n  }\r\n\r\n  string[] videoKeys;\r\n  mapping (string => Video) public videos;\r\n  mapping (address => string[]) posterKeys;\r\n  mapping (address => uint) posterVideoCount;\r\n\r\n  constructor(address _deployedContract) {\r\n    userFactory = UserFactory(_deployedContract);\r\n  }\r\n\r\n  function postVideo(string memory _ipfsHash, string memory _title) external {\r\n    uint timestamp = block.timestamp;\r\n    videos[_ipfsHash] = Video(_ipfsHash, _title, timestamp, msg.sender);\r\n    videoKeys.push(_ipfsHash);\r\n    posterKeys[msg.sender].push(_ipfsHash);\r\n    posterVideoCount[msg.sender]++;\r\n    emit NewVideo(_ipfsHash, _title, timestamp, msg.sender);\r\n  }\r\n\r\n  function getLatestVideos() external view returns(Video[] memory) {\r\n    Video[] memory latestVideos = new Video[](videoKeys.length);\r\n        for(uint i = 0; i < videoKeys.length; i++) {\r\n            uint index = videoKeys.length - (1 + i);\r\n            latestVideos[i] = videos[videoKeys[index]];\r\n        }\r\n        return latestVideos;\r\n  }\r\n\r\n  function getVideosByPoster(address _poster) public view returns(Video[] memory) {\r\n    uint length = posterVideoCount[_poster];\r\n    string[] memory postedHashes = posterKeys[_poster];\r\n    Video[] memory postedVideos = new Video[](length);\r\n    for(uint i = 0; i < length; i++) {\r\n        uint index = length - (1 + i);\r\n        postedVideos[i] = videos[postedHashes[index]];\r\n    }\r\n    return postedVideos;\r\n  }\r\n\r\n  function getSubscribedVideos(address[] memory _subscriptions) external view returns(Video[] memory) {\r\n    uint length = 0;\r\n    for (uint i = 0; i < _subscriptions.length; i++) {\r\n      address poster = _subscriptions[i];\r\n      length += posterVideoCount[poster];\r\n    }\r\n    Video[] memory result = new Video[](length);\r\n    uint counter = 0;\r\n    for (uint i = 0; i < _subscriptions.length; i++) {\r\n      address poster = _subscriptions[i];\r\n      Video[] memory videosFromPoster = getVideosByPoster(poster);\r\n      for (uint j; j < videosFromPoster.length; j++) {\r\n        result[counter] = videosFromPoster[j];\r\n        counter++;\r\n      }\r\n    }\r\n    return result;\r\n  }\r\n}",
  "sourcePath": "C:/Users/Carl/playground/decentralized_video_hosting/service/contracts/VideoFactory.sol",
  "compiler": {
    "name": "solc",
    "version": "0.8.7+commit.e28d00a7.Emscripten.clang"
  },
  "schemaVersion": "3.3.4",
  "updatedAt": "2021-09-27T16:14:14.240Z",
  "networkType": "ethereum",
  "devdoc": {
    "kind": "dev",
    "methods": {},
    "version": 1
  },
  "userdoc": {
    "kind": "user",
    "methods": {},
    "version": 1
  }
}